{
  "abi": [
    {
      "inputs": [
        {
          "internalType": "contract IConnextHandler",
          "name": "_connext",
          "type": "address"
        },
        {
          "internalType": "address",
          "name": "_priceFeed",
          "type": "address"
        }
      ],
      "stateMutability": "nonpayable",
      "type": "constructor"
    },
    {
      "inputs": [
        {
          "internalType": "uint256",
          "name": "requested",
          "type": "uint256"
        },
        {
          "internalType": "uint256",
          "name": "received",
          "type": "uint256"
        }
      ],
      "name": "NotEnoughFunds",
      "type": "error"
    },
    {
      "inputs": [
        {
          "internalType": "address",
          "name": "wallet",
          "type": "address"
        }
      ],
      "name": "UserAlreadyRegistered",
      "type": "error"
    },
    {
      "anonymous": false,
      "inputs": [
        {
          "indexed": false,
          "internalType": "bytes32",
          "name": "transferId",
          "type": "bytes32"
        },
        {
          "indexed": false,
          "internalType": "bool",
          "name": "success",
          "type": "bool"
        },
        {
          "indexed": false,
          "internalType": "address",
          "name": "wallet",
          "type": "address"
        }
      ],
      "name": "CallbackCalled",
      "type": "event"
    },
    {
      "anonymous": false,
      "inputs": [
        {
          "indexed": false,
          "internalType": "address",
          "name": "to",
          "type": "address"
        },
        {
          "indexed": false,
          "internalType": "uint256",
          "name": "newValue",
          "type": "uint256"
        },
        {
          "indexed": false,
          "internalType": "bool",
          "name": "permissioned",
          "type": "bool"
        }
      ],
      "name": "UpdateInitiated",
      "type": "event"
    },
    {
      "inputs": [
        {
          "internalType": "bytes32",
          "name": "transferId",
          "type": "bytes32"
        },
        {
          "internalType": "bool",
          "name": "success",
          "type": "bool"
        },
        {
          "internalType": "bytes",
          "name": "data",
          "type": "bytes"
        }
      ],
      "name": "callback",
      "outputs": [],
      "stateMutability": "nonpayable",
      "type": "function"
    },
    {
      "inputs": [],
      "name": "connext",
      "outputs": [
        {
          "internalType": "contract IConnextHandler",
          "name": "",
          "type": "address"
        }
      ],
      "stateMutability": "view",
      "type": "function"
    },
    {
      "inputs": [
        {
          "internalType": "address",
          "name": "asset",
          "type": "address"
        },
        {
          "internalType": "uint256",
          "name": "newValue",
          "type": "uint256"
        },
        {
          "internalType": "bool",
          "name": "permissioned",
          "type": "bool"
        }
      ],
      "name": "myWalletWasStolen",
      "outputs": [],
      "stateMutability": "payable",
      "type": "function"
    },
    {
      "inputs": [],
      "name": "publicGoodsRegistrationFee",
      "outputs": [
        {
          "internalType": "uint256",
          "name": "",
          "type": "uint256"
        }
      ],
      "stateMutability": "view",
      "type": "function"
    },
    {
      "inputs": [
        {
          "internalType": "address",
          "name": "",
          "type": "address"
        }
      ],
      "name": "registeredWallets",
      "outputs": [
        {
          "internalType": "bool",
          "name": "",
          "type": "bool"
        }
      ],
      "stateMutability": "view",
      "type": "function"
    },
    {
      "inputs": [
        {
          "internalType": "address",
          "name": "",
          "type": "address"
        }
      ],
      "name": "trustedForwarders",
      "outputs": [
        {
          "internalType": "address",
          "name": "",
          "type": "address"
        }
      ],
      "stateMutability": "view",
      "type": "function"
    },
    {
      "inputs": [
        {
          "internalType": "address",
          "name": "",
          "type": "address"
        }
      ],
      "name": "walletRegisterationAttempt",
      "outputs": [
        {
          "internalType": "bool",
          "name": "",
          "type": "bool"
        }
      ],
      "stateMutability": "view",
      "type": "function"
    }
  ],
  "bytecode": {
    "object": "0x60a0604052674563918244f4000060035534801561001c57600080fd5b506040516109a93803806109a983398101604081905261003b9161007b565b6001600160a01b03918216608052600480546001600160a01b031916919092161790556100b5565b6001600160a01b038116811461007857600080fd5b50565b6000806040838503121561008e57600080fd5b825161009981610063565b60208401519092506100aa81610063565b809150509250929050565b6080516108d26100d7600039600081816101a301526103c601526108d26000f3fe6080604052600436106100705760003560e01c806354776bb91161004e57806354776bb91461010057806390537cc91461014e578063b479d3a914610161578063de4b05481461019157600080fd5b806302711d3b14610075578063034baf0e146100ba5780630deb8b90146100dc575b600080fd5b34801561008157600080fd5b506100a5610090366004610546565b60006020819052908152604090205460ff1681565b60405190151581526020015b60405180910390f35b3480156100c657600080fd5b506100da6100d5366004610595565b6101c5565b005b3480156100e857600080fd5b506100f260035481565b6040519081526020016100b1565b34801561010c57600080fd5b5061013661011b366004610546565b6002602052600090815260409020546001600160a01b031681565b6040516001600160a01b0390911681526020016100b1565b6100da61015c366004610660565b610259565b34801561016d57600080fd5b506100a561017c366004610546565b60016020526000908152604090205460ff1681565b34801561019d57600080fd5b506101367f000000000000000000000000000000000000000000000000000000000000000081565b6000818060200190518101906101db919061069e565b9050821561020a576001600160a01b0381166000908152600160208190526040909120805460ff191690911790555b6040805185815284151560208201526001600160a01b0383168183015290517f955e322268708a7285af08b24d6ffbf982d1f11ac7680f6387ca126a57e63a159181900360600190a150505050565b61026161049e565b60035461027690670de0b6b3a76400006106bb565b61028091906106e8565b34106102b1576003546040516311920a6d60e31b815260048101919091523460248201526044015b60405180910390fd5b3360009081526001602052604090205460ff16156102e457604051639e676ee760e01b81523360048201526024016102a8565b604080513360248083018290528351808403909101815260449092018352602080830180516001600160e01b031663d629fff160e01b17905283516101808101855273f5a2c39a7675795741b44d4a5ca49d46c6d81daf8152808201849052610d03818601526108ad6060808301919091526080820184905260a0820193909352600060c08201819052600160e0830152306101008301526101208201819052610140820181905261270b610160830152855193840186528184526001600160a01b0389811693850193909352838601529351636c0636a160e01b81529293927f000000000000000000000000000000000000000000000000000000000000000090911690636c0636a1906103fd908490600401610757565b6020604051808303816000875af115801561041c573d6000803e3d6000fd5b505050506040513d601f19601f820116820180604052508101906104409190610883565b506040805173f5a2c39a7675795741b44d4a5ca49d46c6d81daf8152602081018790528515158183015290517fc60c8a023b484f76d62cf49ea20489130a48df9ee30f15c8022c2a7fadb77fe29181900360600190a1505050505050565b6000600460009054906101000a90046001600160a01b03166001600160a01b0316638e15f4736040518163ffffffff1660e01b8152600401602060405180830381865afa1580156104f3573d6000803e3d6000fd5b505050506040513d601f19601f820116820180604052508101906105179190610883565b61052990670de0b6b3a76400006106bb565b905090565b6001600160a01b038116811461054357600080fd5b50565b60006020828403121561055857600080fd5b81356105638161052e565b9392505050565b8035801515811461057a57600080fd5b919050565b634e487b7160e01b600052604160045260246000fd5b6000806000606084860312156105aa57600080fd5b833592506105ba6020850161056a565b9150604084013567ffffffffffffffff808211156105d757600080fd5b818601915086601f8301126105eb57600080fd5b8135818111156105fd576105fd61057f565b604051601f8201601f19908116603f011681019083821181831017156106255761062561057f565b8160405282815289602084870101111561063e57600080fd5b8260208601602083013760006020848301015280955050505050509250925092565b60008060006060848603121561067557600080fd5b83356106808161052e565b9250602084013591506106956040850161056a565b90509250925092565b6000602082840312156106b057600080fd5b81516105638161052e565b60008160001904831182151516156106e357634e487b7160e01b600052601160045260246000fd5b500290565b60008261070557634e487b7160e01b600052601260045260246000fd5b500490565b6000815180845260005b8181101561073057602081850181015186830182015201610714565b81811115610742576000602083870101525b50601f01601f19169290920160200192915050565b60208152600082516060602084015261077c6080840182516001600160a01b03169052565b60208101516101808060a086015261079861020086018361070a565b915060408301516107b160c087018263ffffffff169052565b50606083015163ffffffff811660e08701525060808301516101006107e0818801836001600160a01b03169052565b60a085015191506101206107fe818901846001600160a01b03169052565b60c08601519250610140610815818a018515159052565b60e0870151935061016061082c818b018615159052565b928701516001600160a01b03908116958a0195909552908601516101a08901528501516101c0880152909301516101e086015260208601519081166040860152915060408501516060850152809250505092915050565b60006020828403121561089557600080fd5b505191905056fea2646970667358221220ffb28fe00746aca5d07fff189bab11570122dd9aebbc8b225bc12cfcf311666064736f6c634300080f0033",
    "linkReferences": {}
  },
  "methodIdentifiers": {
    "callback(bytes32,bool,bytes)": "034baf0e",
    "connext()": "de4b0548",
    "myWalletWasStolen(address,uint256,bool)": "90537cc9",
    "publicGoodsRegistrationFee()": "0deb8b90",
    "registeredWallets(address)": "b479d3a9",
    "trustedForwarders(address)": "54776bb9",
    "walletRegisterationAttempt(address)": "02711d3b"
  },
  "id": 89
}