{
  "abi": [
    {
      "inputs": [
        {
          "internalType": "address",
          "name": "_priceFeed",
          "type": "address"
        }
      ],
      "stateMutability": "nonpayable",
      "type": "constructor"
    },
    {
      "inputs": [],
      "name": "AcknowlegementExpired",
      "type": "error"
    },
    {
      "inputs": [],
      "name": "ForwarderExpired",
      "type": "error"
    },
    {
      "inputs": [],
      "name": "InvalidForwarder",
      "type": "error"
    },
    {
      "inputs": [],
      "name": "InvalidSigner",
      "type": "error"
    },
    {
      "inputs": [],
      "name": "NotEnoughFunds",
      "type": "error"
    },
    {
      "inputs": [],
      "name": "SignatureExpired",
      "type": "error"
    },
    {
      "inputs": [
        {
          "internalType": "address",
          "name": "wallet",
          "type": "address"
        }
      ],
      "name": "UserAlreadyRegistered",
      "type": "error"
    },
    {
      "anonymous": false,
      "inputs": [
        {
          "indexed": true,
          "internalType": "address",
          "name": "owner",
          "type": "address"
        },
        {
          "indexed": true,
          "internalType": "bool",
          "name": "isSponsored",
          "type": "bool"
        }
      ],
      "name": "AcknowledgementEvent",
      "type": "event"
    },
    {
      "anonymous": false,
      "inputs": [
        {
          "indexed": false,
          "internalType": "uint256",
          "name": "value1",
          "type": "uint256"
        },
        {
          "indexed": false,
          "internalType": "uint256",
          "name": "value2",
          "type": "uint256"
        },
        {
          "indexed": false,
          "internalType": "uint256",
          "name": "cost",
          "type": "uint256"
        }
      ],
      "name": "MsgValue",
      "type": "event"
    },
    {
      "anonymous": false,
      "inputs": [
        {
          "indexed": false,
          "internalType": "address",
          "name": "registeredWallet",
          "type": "address"
        },
        {
          "indexed": false,
          "internalType": "bool",
          "name": "gasless",
          "type": "bool"
        }
      ],
      "name": "RegisteredAddressEvent",
      "type": "event"
    },
    {
      "anonymous": false,
      "inputs": [
        {
          "indexed": true,
          "internalType": "address",
          "name": "owner",
          "type": "address"
        },
        {
          "indexed": true,
          "internalType": "bool",
          "name": "isSponsored",
          "type": "bool"
        }
      ],
      "name": "RegistrationEvent",
      "type": "event"
    },
    {
      "inputs": [],
      "name": "DEADLINE_BLOCKS",
      "outputs": [
        {
          "internalType": "uint256",
          "name": "",
          "type": "uint256"
        }
      ],
      "stateMutability": "view",
      "type": "function"
    },
    {
      "inputs": [],
      "name": "DEADLINE_MINUTES",
      "outputs": [
        {
          "internalType": "uint16",
          "name": "",
          "type": "uint16"
        }
      ],
      "stateMutability": "view",
      "type": "function"
    },
    {
      "inputs": [],
      "name": "START_TIME_BLOCKS",
      "outputs": [
        {
          "internalType": "uint256",
          "name": "",
          "type": "uint256"
        }
      ],
      "stateMutability": "view",
      "type": "function"
    },
    {
      "inputs": [],
      "name": "START_TIME_MINUTES",
      "outputs": [
        {
          "internalType": "uint8",
          "name": "",
          "type": "uint8"
        }
      ],
      "stateMutability": "view",
      "type": "function"
    },
    {
      "inputs": [
        {
          "internalType": "uint256",
          "name": "deadline",
          "type": "uint256"
        },
        {
          "internalType": "uint256",
          "name": "nonce",
          "type": "uint256"
        },
        {
          "internalType": "address",
          "name": "owner",
          "type": "address"
        },
        {
          "internalType": "uint8",
          "name": "v",
          "type": "uint8"
        },
        {
          "internalType": "bytes32",
          "name": "r",
          "type": "bytes32"
        },
        {
          "internalType": "bytes32",
          "name": "s",
          "type": "bytes32"
        }
      ],
      "name": "acknowledgementOfRegistry",
      "outputs": [],
      "stateMutability": "payable",
      "type": "function"
    },
    {
      "inputs": [
        {
          "internalType": "address",
          "name": "forwarder",
          "type": "address"
        }
      ],
      "name": "generateHashStruct",
      "outputs": [
        {
          "internalType": "uint256",
          "name": "deadline",
          "type": "uint256"
        },
        {
          "internalType": "bytes32",
          "name": "hashStruct",
          "type": "bytes32"
        }
      ],
      "stateMutability": "view",
      "type": "function"
    },
    {
      "inputs": [],
      "name": "getDeadline",
      "outputs": [
        {
          "internalType": "uint256",
          "name": "",
          "type": "uint256"
        }
      ],
      "stateMutability": "view",
      "type": "function"
    },
    {
      "inputs": [
        {
          "internalType": "address",
          "name": "owner",
          "type": "address"
        }
      ],
      "name": "getDeadline",
      "outputs": [
        {
          "internalType": "uint256",
          "name": "",
          "type": "uint256"
        }
      ],
      "stateMutability": "view",
      "type": "function"
    },
    {
      "inputs": [
        {
          "internalType": "address",
          "name": "session",
          "type": "address"
        }
      ],
      "name": "getDeadlines",
      "outputs": [
        {
          "internalType": "uint256",
          "name": "",
          "type": "uint256"
        },
        {
          "internalType": "uint256",
          "name": "",
          "type": "uint256"
        },
        {
          "internalType": "uint256",
          "name": "",
          "type": "uint256"
        },
        {
          "internalType": "uint256",
          "name": "",
          "type": "uint256"
        },
        {
          "internalType": "uint256",
          "name": "",
          "type": "uint256"
        },
        {
          "internalType": "bool",
          "name": "",
          "type": "bool"
        }
      ],
      "stateMutability": "view",
      "type": "function"
    },
    {
      "inputs": [
        {
          "internalType": "address",
          "name": "owner",
          "type": "address"
        }
      ],
      "name": "getStartTime",
      "outputs": [
        {
          "internalType": "uint256",
          "name": "",
          "type": "uint256"
        }
      ],
      "stateMutability": "view",
      "type": "function"
    },
    {
      "inputs": [],
      "name": "getStartTime",
      "outputs": [
        {
          "internalType": "uint256",
          "name": "",
          "type": "uint256"
        }
      ],
      "stateMutability": "view",
      "type": "function"
    },
    {
      "inputs": [],
      "name": "getTrustedForwarder",
      "outputs": [
        {
          "internalType": "address",
          "name": "",
          "type": "address"
        }
      ],
      "stateMutability": "view",
      "type": "function"
    },
    {
      "inputs": [],
      "name": "gracePeriodLeft",
      "outputs": [
        {
          "internalType": "uint256",
          "name": "_secondsLeft",
          "type": "uint256"
        }
      ],
      "stateMutability": "view",
      "type": "function"
    },
    {
      "inputs": [
        {
          "internalType": "address",
          "name": "wallet",
          "type": "address"
        }
      ],
      "name": "isWalletRegistered",
      "outputs": [
        {
          "internalType": "bool",
          "name": "",
          "type": "bool"
        }
      ],
      "stateMutability": "view",
      "type": "function"
    },
    {
      "inputs": [],
      "name": "isWalletRegistered",
      "outputs": [
        {
          "internalType": "bool",
          "name": "",
          "type": "bool"
        }
      ],
      "stateMutability": "view",
      "type": "function"
    },
    {
      "inputs": [],
      "name": "myWalletWasStolen",
      "outputs": [],
      "stateMutability": "payable",
      "type": "function"
    },
    {
      "inputs": [
        {
          "internalType": "address",
          "name": "",
          "type": "address"
        }
      ],
      "name": "nonces",
      "outputs": [
        {
          "internalType": "uint256",
          "name": "",
          "type": "uint256"
        }
      ],
      "stateMutability": "view",
      "type": "function"
    },
    {
      "inputs": [],
      "name": "publicGoodsRegistrationFee",
      "outputs": [
        {
          "internalType": "uint256",
          "name": "",
          "type": "uint256"
        }
      ],
      "stateMutability": "view",
      "type": "function"
    },
    {
      "inputs": [],
      "name": "registeredWalletCount",
      "outputs": [
        {
          "internalType": "uint256",
          "name": "",
          "type": "uint256"
        }
      ],
      "stateMutability": "view",
      "type": "function"
    },
    {
      "inputs": [
        {
          "internalType": "address",
          "name": "",
          "type": "address"
        }
      ],
      "name": "registeredWallets",
      "outputs": [
        {
          "internalType": "uint256",
          "name": "",
          "type": "uint256"
        }
      ],
      "stateMutability": "view",
      "type": "function"
    },
    {
      "inputs": [],
      "name": "regististrationPeriodExpired",
      "outputs": [
        {
          "internalType": "bool",
          "name": "",
          "type": "bool"
        }
      ],
      "stateMutability": "view",
      "type": "function"
    },
    {
      "inputs": [],
      "name": "registrationPeriodLeft",
      "outputs": [
        {
          "internalType": "uint256",
          "name": "_secondsLeft",
          "type": "uint256"
        }
      ],
      "stateMutability": "view",
      "type": "function"
    },
    {
      "inputs": [
        {
          "internalType": "uint256",
          "name": "deadline",
          "type": "uint256"
        },
        {
          "internalType": "uint256",
          "name": "nonce",
          "type": "uint256"
        },
        {
          "internalType": "address",
          "name": "owner",
          "type": "address"
        },
        {
          "internalType": "uint8",
          "name": "v",
          "type": "uint8"
        },
        {
          "internalType": "bytes32",
          "name": "r",
          "type": "bytes32"
        },
        {
          "internalType": "bytes32",
          "name": "s",
          "type": "bytes32"
        }
      ],
      "name": "walletRegistration",
      "outputs": [
        {
          "internalType": "address",
          "name": "",
          "type": "address"
        }
      ],
      "stateMutability": "payable",
      "type": "function"
    },
    {
      "inputs": [
        {
          "internalType": "address",
          "name": "wallet",
          "type": "address"
        }
      ],
      "name": "whenWalletWasRegisted",
      "outputs": [
        {
          "internalType": "uint256",
          "name": "",
          "type": "uint256"
        }
      ],
      "stateMutability": "view",
      "type": "function"
    },
    {
      "inputs": [],
      "name": "whenWalletWasRegisted",
      "outputs": [
        {
          "internalType": "uint256",
          "name": "",
          "type": "uint256"
        }
      ],
      "stateMutability": "view",
      "type": "function"
    }
  ],
  "bytecode": {
    "object": "0x610200604052600560045560006005553480156200001c57600080fd5b50604051620018ec380380620018ec8339810160408190526200003f9162000265565b604080518082018252601981527f41636b6e6f776c656467656d656e744f66526567697374727900000000000000602080830191909152825180840184526001808252600d60fa1b82840181905285518087018752600c81526b2932b3b4b9ba3930ba34b7b760a11b8186019081528751808901909852928752938601528251902060e08190527f13600b294191fc92924bb3ce4b969c1e7e2bab8f4c93c3fc6d0a51733df3c0606101008190524660a05293949193600080516020620018cc833981519152620001128184846200019f565b6080523060c05261012052505083516020808601919091208451918501919091206101a08290526101c081905246610160529092509050600080516020620018cc833981519152620001668184846200020f565b6101405230610180526101e0525050600380546001600160a01b0319166001600160a01b03949094169390931790925550620002979050565b6040805160208101859052908101839052606081018290524660808201523060a08201527f86fdecd3151a18dd477feb379432be4107d347c2ee6bc63ca6212c6d674c17f960c082015260009060e0015b6040516020818303038152906040528051906020012090509392505050565b6040805160208101859052908101839052606081018290524660808201523060a08201527fe7e338c8a96606d405ae49875289174c38181bda641043e953b12964ad115f4960c082015260009060e001620001f0565b6000602082840312156200027857600080fd5b81516001600160a01b03811681146200029057600080fd5b9392505050565b60805160a05160c05160e05161010051610120516101405161016051610180516101a0516101c0516101e0516115a36200032960003960006112a7015260006112e9015260006112c80152600061122c015260006112560152600061128001526000610f1601526000610f5801526000610f3701526000610e9b01526000610ec501526000610eef01526115a36000f3fe6080604052600436106101665760003560e01c8063a2213262116100d1578063c828371e1161008a578063e5c92bf811610064578063e5c92bf8146104b6578063ead887cb146104cb578063f5415f3a146104d3578063f5f959201461050857600080fd5b8063c828371e14610443578063ce1b815f14610469578063ce74d3101461049457600080fd5b8063a221326214610388578063a35d1f8e146103c1578063b46f79ec146103d7578063b479d3a9146103ec578063b8e73d4214610419578063c81ddf7d1461042e57600080fd5b80637347d66e116101235780637347d66e146102725780637ecebe00146102c15780637f247e49146102ee578063805e3ec81461030e578063862d2f2a146103485780639e32cab91461037357600080fd5b80630deb8b901461016b578063123ddfd5146101945780631c0f31d3146101ca57806332e140ac146101fd5780635f8d96de146102245780635fcd80e414610249575b600080fd5b34801561017757600080fd5b5061018160045481565b6040519081526020015b60405180910390f35b3480156101a057600080fd5b506101816101af3660046113ee565b6001600160a01b031660009081526006602052604090205490565b3480156101d657600080fd5b503360009081526001602052604090206002015442115b604051901515815260200161018b565b34801561020957600080fd5b50610212603c81565b60405160ff909116815260200161018b565b34801561023057600080fd5b5033600090815260016020526040902060020154610181565b34801561025557600080fd5b5061025f61016881565b60405161ffff909116815260200161018b565b34801561027e57600080fd5b5061029261028d3660046113ee565b61051d565b6040805196875260208701959095529385019290925260608401526080830152151560a082015260c00161018b565b3480156102cd57600080fd5b506101816102dc3660046113ee565b60026020526000908152604090205481565b3480156102fa57600080fd5b506101ed6103093660046113ee565b610643565b34801561031a57600080fd5b506101816103293660046113ee565b6001600160a01b03166000908152600160208190526040909120015490565b61035b610356366004611410565b610687565b6040516001600160a01b03909116815260200161018b565b34801561037f57600080fd5b50610181600481565b34801561039457600080fd5b506101816103a33660046113ee565b6001600160a01b031660009081526001602052604090206002015490565b3480156103cd57600080fd5b5061018160055481565b3480156103e357600080fd5b506101816108d6565b3480156103f857600080fd5b506101816104073660046113ee565b60066020526000908152604090205481565b34801561042557600080fd5b50610181610910565b34801561043a57600080fd5b50610181603781565b34801561044f57600080fd5b503360009081526001602081905260409091200154610181565b34801561047557600080fd5b50336000908152600160205260409020546001600160a01b031661035b565b3480156104a057600080fd5b5033600090815260066020526040902054610181565b6104c96104c4366004611410565b610930565b005b6104c9610b2e565b3480156104df57600080fd5b506104f36104ee3660046113ee565b610ca0565b6040805192835260208301919091520161018b565b34801561051457600080fd5b506101ed610d1d565b6001600160a01b0380821660009081526001602052604081208054919283928392839283928392911633148061055b57506001600160a01b03881633145b61059c5760405162461bcd60e51b815260206004820152600d60248201526c496e76616c696420717565727960981b60448201526064015b60405180910390fd5b43816002015410156105ca57438160020154826001015460008060019650965096509650965096505061063a565b4381600101541015610603576002810154600182015443919060006105ef8484611486565b60009650965096509650965096505061063a565b6002810154600182015443919061061a8382611486565b43856002015461062a9190611486565b6000965096509650965096509650505b91939550919395565b6001600160a01b0381166000908152600660205260408120541580159061068157506001600160a01b03821660009081526006602052604090205442115b92915050565b60004287116106a957604051630819bdcd60e01b815260040160405180910390fd5b6001600160a01b0385166000908152600260209081526040808320549051610719926106fe927f84a9e85d406e54d479a4c4f1ec22065370770f384a4b1e9f49d3dcf5ab26ad49928b923392918f910161149d565b60405160208183030381529060405280519060200120610d2c565b9050600061072982878787610d7a565b90506001600160a01b03811661075257604051632057875960e21b815260040160405180910390fd5b866001600160a01b0316816001600160a01b03161461078457604051632057875960e21b815260040160405180910390fd5b6001600160a01b038088166000908152600160205260409020805490911633146107c157604051635666e12160e01b815260040160405180910390fd5b4381600201541161081c576001600160a01b038816600090815260016020819052604080832080546001600160a01b03191681559182018390556002909101919091558051636cb5bc1b60e11b815290519081900360040190fd5b6001600160a01b0388166000818152600160208190526040822080546001600160a01b031916815590810182905560020155339003610890576040516000906001600160a01b038a16907f8adb845d98fa3955bbf01b5e2c4061c5e184965370e0dc84980f7985ef410162908390a36108c8565b6040516001906001600160a01b038a16907f8adb845d98fa3955bbf01b5e2c4061c5e184965370e0dc84980f7985ef41016290600090a35b509598975050505050505050565b3360009081526001602081905260408220908101544211156108f757600080fd5b60004382600101546109099190611486565b9050505090565b33600090815260016020526040812060028101544211156108f757600080fd5b6001600160a01b03841660009081526002602090815260408083205490516109a092610985927f5d29f5466c65723821dcc0b8c03d313c167487cda1efe0d5381d304f61bb85d2928a923392918e910161149d565b60405160208183030381529060405280519060200120610da2565b905060006109b082868686610d7a565b90506001600160a01b0381166109d957604051632057875960e21b815260040160405180910390fd5b856001600160a01b0316816001600160a01b031614610a0b57604051632057875960e21b815260040160405180910390fd5b6001600160a01b0386166000908152600260205260408120805491610a2f836114cc565b91905055506040518060600160405280336001600160a01b03168152602001610a56610daf565b8152602001610a63610dbc565b90526001600160a01b03878116600081815260016020818152604092839020865181546001600160a01b0319169616959095178555850151908401559290920151600290910155339003610aec576040516000906001600160a01b038816907f537b1549be9c721ec09b01e013f313ff6a23bfef6e595d8242d03d42f25367cc908390a3610b24565b6040516001906001600160a01b038816907f537b1549be9c721ec09b01e013f313ff6a23bfef6e595d8242d03d42f25367cc90600090a35b5050505050505050565b610b36610dc9565b600454610b4b90670de0b6b3a76400006114e5565b610b559190611504565b3411610b7457604051631036b5ad60e31b815260040160405180910390fd5b610b7c610e51565b15610b9c57604051639e676ee760e01b8152336004820152602401610593565b3360009081526006602052604081204290556005805491610bbc836114cc565b909155505060408051338152600060208201527f8cfd3466ca34c5d60855eccb3d2d5a30489dde6926bb2c61c032dd2080a82eb8910160405180910390a1604051600090739876644568157cc35c0ad942b4ca2de2124b37329034908381818185875af1925050503d8060008114610c50576040519150601f19603f3d011682016040523d82523d6000602084013e610c55565b606091505b5050905080610c9d5760405162461bcd60e51b81526020600482015260146024820152732330b4b632b2103a379039b2b7321022ba3432b960611b6044820152606401610593565b50565b6000806000610cad610e80565b3360008181526002602090815260408083205490519495509193610cf9937f5d29f5466c65723821dcc0b8c03d313c167487cda1efe0d5381d304f61bb85d29390928a9288910161149d565b60408051601f19818403018152919052805160209091012091959194509092505050565b6000610d27610e51565b905090565b6000610681610d39610e8e565b8360405161190160f01b6020820152602281018390526042810182905260009060620160405160208183030381529060405280519060200120905092915050565b6000806000610d8b87878787610f7c565b91509150610d9881611069565b5095945050505050565b6000610681610d3961121f565b6000610d27600443611526565b6000610d27603743611526565b60006305f5e100600360009054906101000a90046001600160a01b03166001600160a01b0316638e15f4736040518163ffffffff1660e01b8152600401602060405180830381865afa158015610e23573d6000803e3d6000fd5b505050506040513d601f19601f82011682018060405250810190610e47919061153e565b610d279190611504565b3360009081526006602052604081205415801590610d2757505033600090815260066020526040902054421190565b6000610d2761016842611526565b6000306001600160a01b037f000000000000000000000000000000000000000000000000000000000000000016148015610ee757507f000000000000000000000000000000000000000000000000000000000000000046145b15610f1157507f000000000000000000000000000000000000000000000000000000000000000090565b610d277f00000000000000000000000000000000000000000000000000000000000000007f00000000000000000000000000000000000000000000000000000000000000007f000000000000000000000000000000000000000000000000000000000000000061130d565b6000807f7fffffffffffffffffffffffffffffff5d576e7357a4501ddfe92f46681b20a0831115610fb35750600090506003611060565b8460ff16601b14158015610fcb57508460ff16601c14155b15610fdc5750600090506004611060565b6040805160008082526020820180845289905260ff881692820192909252606081018690526080810185905260019060a0016020604051602081039080840390855afa158015611030573d6000803e3d6000fd5b5050604051601f1901519150506001600160a01b03811661105957600060019250925050611060565b9150600090505b94509492505050565b600081600481111561107d5761107d611557565b036110855750565b600181600481111561109957611099611557565b036110e65760405162461bcd60e51b815260206004820152601860248201527f45434453413a20696e76616c6964207369676e617475726500000000000000006044820152606401610593565b60028160048111156110fa576110fa611557565b036111475760405162461bcd60e51b815260206004820152601f60248201527f45434453413a20696e76616c6964207369676e6174757265206c656e677468006044820152606401610593565b600381600481111561115b5761115b611557565b036111b35760405162461bcd60e51b815260206004820152602260248201527f45434453413a20696e76616c6964207369676e6174757265202773272076616c604482015261756560f01b6064820152608401610593565b60048160048111156111c7576111c7611557565b03610c9d5760405162461bcd60e51b815260206004820152602260248201527f45434453413a20696e76616c6964207369676e6174757265202776272076616c604482015261756560f01b6064820152608401610593565b6000306001600160a01b037f00000000000000000000000000000000000000000000000000000000000000001614801561127857507f000000000000000000000000000000000000000000000000000000000000000046145b156112a257507f000000000000000000000000000000000000000000000000000000000000000090565b610d277f00000000000000000000000000000000000000000000000000000000000000007f00000000000000000000000000000000000000000000000000000000000000007f000000000000000000000000000000000000000000000000000000000000000061137d565b6040805160208101859052908101839052606081018290524660808201523060a08201527f86fdecd3151a18dd477feb379432be4107d347c2ee6bc63ca6212c6d674c17f960c082015260009060e0015b6040516020818303038152906040528051906020012090509392505050565b6040805160208101859052908101839052606081018290524660808201523060a08201527fe7e338c8a96606d405ae49875289174c38181bda641043e953b12964ad115f4960c082015260009060e00161135e565b80356001600160a01b03811681146113e957600080fd5b919050565b60006020828403121561140057600080fd5b611409826113d2565b9392505050565b60008060008060008060c0878903121561142957600080fd5b8635955060208701359450611440604088016113d2565b9350606087013560ff8116811461145657600080fd5b9598949750929560808101359460a0909101359350915050565b634e487b7160e01b600052601160045260246000fd5b60008282101561149857611498611470565b500390565b9485526001600160a01b0393841660208601529190921660408401526060830191909152608082015260a00190565b6000600182016114de576114de611470565b5060010190565b60008160001904831182151516156114ff576114ff611470565b500290565b60008261152157634e487b7160e01b600052601260045260246000fd5b500490565b6000821982111561153957611539611470565b500190565b60006020828403121561155057600080fd5b5051919050565b634e487b7160e01b600052602160045260246000fdfea26469706673582212204b33d2df597f3c1cdd38b9cc7064d6075982129541a96f2efc92fcc13f0b981964736f6c634300080f0033d87cd6ef79d4e2b95e15ce8abf732db51ec771f1ca2edccf22a46c729ac56472",
    "linkReferences": {}
  },
  "methodIdentifiers": {
    "DEADLINE_BLOCKS()": "c81ddf7d",
    "DEADLINE_MINUTES()": "5fcd80e4",
    "START_TIME_BLOCKS()": "9e32cab9",
    "START_TIME_MINUTES()": "32e140ac",
    "acknowledgementOfRegistry(uint256,uint256,address,uint8,bytes32,bytes32)": "e5c92bf8",
    "generateHashStruct(address)": "f5415f3a",
    "getDeadline()": "5f8d96de",
    "getDeadline(address)": "a2213262",
    "getDeadlines(address)": "7347d66e",
    "getStartTime()": "c828371e",
    "getStartTime(address)": "805e3ec8",
    "getTrustedForwarder()": "ce1b815f",
    "gracePeriodLeft()": "b46f79ec",
    "isWalletRegistered()": "f5f95920",
    "isWalletRegistered(address)": "7f247e49",
    "myWalletWasStolen()": "ead887cb",
    "nonces(address)": "7ecebe00",
    "publicGoodsRegistrationFee()": "0deb8b90",
    "registeredWalletCount()": "a35d1f8e",
    "registeredWallets(address)": "b479d3a9",
    "regististrationPeriodExpired()": "1c0f31d3",
    "registrationPeriodLeft()": "b8e73d42",
    "walletRegistration(uint256,uint256,address,uint8,bytes32,bytes32)": "862d2f2a",
    "whenWalletWasRegisted()": "ce74d310",
    "whenWalletWasRegisted(address)": "123ddfd5"
  },
  "id": 23
}