{
  "abi": [
    {
      "inputs": [],
      "stateMutability": "nonpayable",
      "type": "constructor"
    },
    {
      "inputs": [],
      "name": "NonTransferrable",
      "type": "error"
    },
    {
      "inputs": [],
      "name": "UnableToBurn",
      "type": "error"
    },
    {
      "anonymous": false,
      "inputs": [
        {
          "indexed": true,
          "internalType": "address",
          "name": "owner",
          "type": "address"
        },
        {
          "indexed": true,
          "internalType": "address",
          "name": "approved",
          "type": "address"
        },
        {
          "indexed": true,
          "internalType": "uint256",
          "name": "tokenId",
          "type": "uint256"
        }
      ],
      "name": "Approval",
      "type": "event"
    },
    {
      "anonymous": false,
      "inputs": [
        {
          "indexed": true,
          "internalType": "address",
          "name": "owner",
          "type": "address"
        },
        {
          "indexed": true,
          "internalType": "address",
          "name": "operator",
          "type": "address"
        },
        {
          "indexed": false,
          "internalType": "bool",
          "name": "approved",
          "type": "bool"
        }
      ],
      "name": "ApprovalForAll",
      "type": "event"
    },
    {
      "anonymous": false,
      "inputs": [
        {
          "indexed": false,
          "internalType": "address",
          "name": "",
          "type": "address"
        },
        {
          "indexed": false,
          "internalType": "uint256",
          "name": "",
          "type": "uint256"
        }
      ],
      "name": "Minted",
      "type": "event"
    },
    {
      "anonymous": false,
      "inputs": [
        {
          "indexed": true,
          "internalType": "address",
          "name": "previousOwner",
          "type": "address"
        },
        {
          "indexed": true,
          "internalType": "address",
          "name": "newOwner",
          "type": "address"
        }
      ],
      "name": "OwnershipTransferred",
      "type": "event"
    },
    {
      "anonymous": false,
      "inputs": [
        {
          "indexed": true,
          "internalType": "address",
          "name": "from",
          "type": "address"
        },
        {
          "indexed": true,
          "internalType": "address",
          "name": "to",
          "type": "address"
        },
        {
          "indexed": true,
          "internalType": "uint256",
          "name": "tokenId",
          "type": "uint256"
        }
      ],
      "name": "Transfer",
      "type": "event"
    },
    {
      "inputs": [
        {
          "internalType": "address",
          "name": "to",
          "type": "address"
        },
        {
          "internalType": "uint256",
          "name": "tokenId",
          "type": "uint256"
        }
      ],
      "name": "approve",
      "outputs": [],
      "stateMutability": "nonpayable",
      "type": "function"
    },
    {
      "inputs": [
        {
          "internalType": "address",
          "name": "owner",
          "type": "address"
        }
      ],
      "name": "balanceOf",
      "outputs": [
        {
          "internalType": "uint256",
          "name": "",
          "type": "uint256"
        }
      ],
      "stateMutability": "view",
      "type": "function"
    },
    {
      "inputs": [
        {
          "internalType": "uint256",
          "name": "tokenId",
          "type": "uint256"
        }
      ],
      "name": "getApproved",
      "outputs": [
        {
          "internalType": "address",
          "name": "",
          "type": "address"
        }
      ],
      "stateMutability": "view",
      "type": "function"
    },
    {
      "inputs": [
        {
          "internalType": "address",
          "name": "owner",
          "type": "address"
        },
        {
          "internalType": "address",
          "name": "operator",
          "type": "address"
        }
      ],
      "name": "isApprovedForAll",
      "outputs": [
        {
          "internalType": "bool",
          "name": "",
          "type": "bool"
        }
      ],
      "stateMutability": "view",
      "type": "function"
    },
    {
      "inputs": [],
      "name": "name",
      "outputs": [
        {
          "internalType": "string",
          "name": "",
          "type": "string"
        }
      ],
      "stateMutability": "view",
      "type": "function"
    },
    {
      "inputs": [],
      "name": "owner",
      "outputs": [
        {
          "internalType": "address",
          "name": "",
          "type": "address"
        }
      ],
      "stateMutability": "view",
      "type": "function"
    },
    {
      "inputs": [
        {
          "internalType": "uint256",
          "name": "tokenId",
          "type": "uint256"
        }
      ],
      "name": "ownerOf",
      "outputs": [
        {
          "internalType": "address",
          "name": "",
          "type": "address"
        }
      ],
      "stateMutability": "view",
      "type": "function"
    },
    {
      "inputs": [],
      "name": "renounceOwnership",
      "outputs": [],
      "stateMutability": "nonpayable",
      "type": "function"
    },
    {
      "inputs": [],
      "name": "safeMint",
      "outputs": [],
      "stateMutability": "payable",
      "type": "function"
    },
    {
      "inputs": [
        {
          "internalType": "address",
          "name": "from",
          "type": "address"
        },
        {
          "internalType": "address",
          "name": "to",
          "type": "address"
        },
        {
          "internalType": "uint256",
          "name": "tokenId",
          "type": "uint256"
        }
      ],
      "name": "safeTransferFrom",
      "outputs": [],
      "stateMutability": "nonpayable",
      "type": "function"
    },
    {
      "inputs": [
        {
          "internalType": "address",
          "name": "from",
          "type": "address"
        },
        {
          "internalType": "address",
          "name": "to",
          "type": "address"
        },
        {
          "internalType": "uint256",
          "name": "tokenId",
          "type": "uint256"
        },
        {
          "internalType": "bytes",
          "name": "data",
          "type": "bytes"
        }
      ],
      "name": "safeTransferFrom",
      "outputs": [],
      "stateMutability": "nonpayable",
      "type": "function"
    },
    {
      "inputs": [
        {
          "internalType": "address",
          "name": "operator",
          "type": "address"
        },
        {
          "internalType": "bool",
          "name": "approved",
          "type": "bool"
        }
      ],
      "name": "setApprovalForAll",
      "outputs": [],
      "stateMutability": "nonpayable",
      "type": "function"
    },
    {
      "inputs": [
        {
          "internalType": "bytes4",
          "name": "interfaceId",
          "type": "bytes4"
        }
      ],
      "name": "supportsInterface",
      "outputs": [
        {
          "internalType": "bool",
          "name": "",
          "type": "bool"
        }
      ],
      "stateMutability": "view",
      "type": "function"
    },
    {
      "inputs": [],
      "name": "symbol",
      "outputs": [
        {
          "internalType": "string",
          "name": "",
          "type": "string"
        }
      ],
      "stateMutability": "view",
      "type": "function"
    },
    {
      "inputs": [
        {
          "internalType": "uint256",
          "name": "tokenId",
          "type": "uint256"
        }
      ],
      "name": "tokenURI",
      "outputs": [
        {
          "internalType": "string",
          "name": "svg",
          "type": "string"
        }
      ],
      "stateMutability": "view",
      "type": "function"
    },
    {
      "inputs": [
        {
          "internalType": "address",
          "name": "from",
          "type": "address"
        },
        {
          "internalType": "address",
          "name": "to",
          "type": "address"
        },
        {
          "internalType": "uint256",
          "name": "tokenId",
          "type": "uint256"
        }
      ],
      "name": "transferFrom",
      "outputs": [],
      "stateMutability": "nonpayable",
      "type": "function"
    },
    {
      "inputs": [
        {
          "internalType": "address",
          "name": "newOwner",
          "type": "address"
        }
      ],
      "name": "transferOwnership",
      "outputs": [],
      "stateMutability": "nonpayable",
      "type": "function"
    }
  ],
  "bytecode": {
    "object": "0x60806040523480156200001157600080fd5b506040518060400160405280601481526020017f53746f6c656e57616c6c6574526567697374727900000000000000000000000081525060405180604001604052806004815260200163212aa92760e11b8152508160009081620000769190620001a3565b506001620000858282620001a3565b505050620000a26200009c620000a860201b60201c565b620000ac565b6200026f565b3390565b600680546001600160a01b038381166001600160a01b0319831681179093556040519116919082907f8be0079c531659141344cd1fd0a4f28419497f9722a3daafe3b4186f6b6457e090600090a35050565b634e487b7160e01b600052604160045260246000fd5b600181811c908216806200012957607f821691505b6020821081036200014a57634e487b7160e01b600052602260045260246000fd5b50919050565b601f8211156200019e57600081815260208120601f850160051c81016020861015620001795750805b601f850160051c820191505b818110156200019a5782815560010162000185565b5050505b505050565b81516001600160401b03811115620001bf57620001bf620000fe565b620001d781620001d0845462000114565b8462000150565b602080601f8311600181146200020f5760008415620001f65750858301515b600019600386901b1c1916600185901b1785556200019a565b600085815260208120601f198616915b8281101562000240578886015182559484019460019091019084016200021f565b50858210156200025f5787850151600019600388901b60f8161c191681555b5050505050600190811b01905550565b614972806200027f6000396000f3fe6080604052600436106100fe5760003560e01c806370a0823111610095578063a22cb46511610064578063a22cb46514610292578063b88d4fde146102b2578063c87b56dd146102d2578063e985e9c5146102f2578063f2fde38b1461033b57600080fd5b806370a082311461021c578063715018a61461024a5780638da5cb5b1461025f57806395d89b411461027d57600080fd5b806323b872dd116100d157806323b872dd146101b457806342842e0e146101d45780636352211e146101f45780636871ee401461021457600080fd5b806301ffc9a71461010357806306fdde0314610138578063081812fc1461015a578063095ea7b314610192575b600080fd5b34801561010f57600080fd5b5061012361011e3660046135f2565b61035b565b60405190151581526020015b60405180910390f35b34801561014457600080fd5b5061014d6103ad565b60405161012f919061366e565b34801561016657600080fd5b5061017a610175366004613681565b61043f565b6040516001600160a01b03909116815260200161012f565b34801561019e57600080fd5b506101b26101ad3660046136b6565b610466565b005b3480156101c057600080fd5b506101b26101cf3660046136e0565b610580565b3480156101e057600080fd5b506101b26101ef3660046136e0565b6105b1565b34801561020057600080fd5b5061017a61020f366004613681565b6105cc565b6101b261062c565b34801561022857600080fd5b5061023c61023736600461371c565b61068d565b60405190815260200161012f565b34801561025657600080fd5b506101b2610713565b34801561026b57600080fd5b506006546001600160a01b031661017a565b34801561028957600080fd5b5061014d610727565b34801561029e57600080fd5b506101b26102ad366004613737565b610736565b3480156102be57600080fd5b506101b26102cd366004613789565b610745565b3480156102de57600080fd5b5061014d6102ed366004613681565b61077d565b3480156102fe57600080fd5b5061012361030d366004613865565b6001600160a01b03918216600090815260056020908152604080832093909416825291909152205460ff1690565b34801561034757600080fd5b506101b261035636600461371c565b610906565b60006001600160e01b031982166380ac58cd60e01b148061038c57506001600160e01b03198216635b5e139f60e01b145b806103a757506301ffc9a760e01b6001600160e01b03198316145b92915050565b6060600080546103bc90613898565b80601f01602080910402602001604051908101604052809291908181526020018280546103e890613898565b80156104355780601f1061040a57610100808354040283529160200191610435565b820191906000526020600020905b81548152906001019060200180831161041857829003601f168201915b5050505050905090565b600061044a8261097f565b506000908152600460205260409020546001600160a01b031690565b6000610471826105cc565b9050806001600160a01b0316836001600160a01b0316036104e35760405162461bcd60e51b815260206004820152602160248201527f4552433732313a20617070726f76616c20746f2063757272656e74206f776e656044820152603960f91b60648201526084015b60405180910390fd5b336001600160a01b03821614806104ff57506104ff813361030d565b6105715760405162461bcd60e51b815260206004820152603d60248201527f4552433732313a20617070726f76652063616c6c6572206973206e6f7420746f60448201527f6b656e206f776e6572206f7220617070726f76656420666f7220616c6c00000060648201526084016104da565b61057b83836109de565b505050565b61058a3382610a4c565b6105a65760405162461bcd60e51b81526004016104da906138d2565b61057b838383610acb565b61057b83838360405180602001604052806000815250610745565b6000818152600260205260408120546001600160a01b0316806103a75760405162461bcd60e51b8152602060048201526018602482015277115490cdcc8c4e881a5b9d985b1a59081d1bdad95b88125160421b60448201526064016104da565b600061063760075490565b9050610647600780546001019055565b6106513382610c81565b60408051338152602081018390527f30385c845b448a36257a6a1716e6ad2e1bc2cbe333cde1e69fe849ad6511adfe910160405180910390a150565b60006001600160a01b0382166106f75760405162461bcd60e51b815260206004820152602960248201527f4552433732313a2061646472657373207a65726f206973206e6f7420612076616044820152683634b21037bbb732b960b91b60648201526084016104da565b506001600160a01b031660009081526003602052604090205490565b61071b610c9b565b6107256000610cf5565b565b6060600180546103bc90613898565b610741338383610d47565b5050565b61074f3383610a4c565b61076b5760405162461bcd60e51b81526004016104da906138d2565b61077784848484610e15565b50505050565b6000818152600260205260409020546060906001600160a01b03166107fc5760405162461bcd60e51b815260206004820152602f60248201527f4552433732314d657461646174613a2055524920717565727920666f72206e6f60448201526e3732bc34b9ba32b73a103a37b5b2b760891b60648201526084016104da565b600082610808846105cc565b6040516020016108659291909182527f546869732077616c6c657420776173207369676e65642061732053746f6c656e60208301526101d160f51b604083015260601b6bffffffffffffffffffffffff1916604282015260560190565b60408051601f1981840301815282820190915260208083527f546869732077616c6c657420776173207369676e65642061732053746f6c656e90830152915060006108af85610e48565b90506108dd8383836040516020016108c99392919061393b565b604051602081830303815290604052610e56565b6040516020016108ed9190613a02565b6040516020818303038152906040529350505050919050565b61090e610c9b565b6001600160a01b0381166109735760405162461bcd60e51b815260206004820152602660248201527f4f776e61626c653a206e6577206f776e657220697320746865207a65726f206160448201526564647265737360d01b60648201526084016104da565b61097c81610cf5565b50565b6000818152600260205260409020546001600160a01b031661097c5760405162461bcd60e51b8152602060048201526018602482015277115490cdcc8c4e881a5b9d985b1a59081d1bdad95b88125160421b60448201526064016104da565b600081815260046020526040902080546001600160a01b0319166001600160a01b0384169081179091558190610a13826105cc565b6001600160a01b03167f8c5be1e5ebec7d5bd14f71427d1e84f3dd0314c0f7b2291e5b200ac8c7c3b92560405160405180910390a45050565b600080610a58836105cc565b9050806001600160a01b0316846001600160a01b03161480610a9f57506001600160a01b0380821660009081526005602090815260408083209388168352929052205460ff165b80610ac35750836001600160a01b0316610ab88461043f565b6001600160a01b0316145b949350505050565b826001600160a01b0316610ade826105cc565b6001600160a01b031614610b425760405162461bcd60e51b815260206004820152602560248201527f4552433732313a207472616e736665722066726f6d20696e636f72726563742060448201526437bbb732b960d91b60648201526084016104da565b6001600160a01b038216610ba45760405162461bcd60e51b8152602060048201526024808201527f4552433732313a207472616e7366657220746f20746865207a65726f206164646044820152637265737360e01b60648201526084016104da565b610baf838383610fa9565b600081815260046020908152604080832080546001600160a01b03191690556001600160a01b038616835260039091528120805460019290610bf2908490613a5d565b90915550506001600160a01b0382166000908152600360205260408120805460019290610c20908490613a74565b909155505060008181526002602052604080822080546001600160a01b0319166001600160a01b0386811691821790925591518493918716917fddf252ad1be2c89b69c2b068fc378daa952ba7f163c4a11628f55a4df523b3ef91a4505050565b610741828260405180602001604052806000815250610fd0565b6006546001600160a01b031633146107255760405162461bcd60e51b815260206004820181905260248201527f4f776e61626c653a2063616c6c6572206973206e6f7420746865206f776e657260448201526064016104da565b600680546001600160a01b038381166001600160a01b0319831681179093556040519116919082907f8be0079c531659141344cd1fd0a4f28419497f9722a3daafe3b4186f6b6457e090600090a35050565b816001600160a01b0316836001600160a01b031603610da85760405162461bcd60e51b815260206004820152601960248201527f4552433732313a20617070726f766520746f2063616c6c65720000000000000060448201526064016104da565b6001600160a01b03838116600081815260056020908152604080832094871680845294825291829020805460ff191686151590811790915591519182527f17307eab39ab6107e8899845ad3d59bd9653f200f220920489ca2b5937696c31910160405180910390a3505050565b610e20848484610acb565b610e2c84848484611003565b6107775760405162461bcd60e51b81526004016104da90613a8c565b60606103a7610e5683611104565b60608151600003610e7557505060408051602081019091526000815290565b60006040518060600160405280604081526020016145a56040913990506000600384516002610ea49190613a74565b610eae9190613ade565b610eb9906004613b00565b67ffffffffffffffff811115610ed157610ed1613773565b6040519080825280601f01601f191660200182016040528015610efb576020820181803683370190505b509050600182016020820185865187015b80821015610f67576003820191508151603f8160121c168501518453600184019350603f81600c1c168501518453600184019350603f8160061c168501518453600184019350603f8116850151845350600183019250610f0c565b5050600386510660018114610f835760028114610f9657610f9e565b603d6001830353603d6002830353610f9e565b603d60018303535b509195945050505050565b6001600160a01b03831661057b5760405163bf9e1a7560e01b815260040160405180910390fd5b610fda8383611136565b610fe76000848484611003565b61057b5760405162461bcd60e51b81526004016104da90613a8c565b60006001600160a01b0384163b156110f957604051630a85bd0160e11b81526001600160a01b0385169063150b7a0290611047903390899088908890600401613b1f565b6020604051808303816000875af1925050508015611082575060408051601f3d908101601f1916820190925261107f91810190613b5c565b60015b6110df573d8080156110b0576040519150601f19603f3d011682016040523d82523d6000602084013e6110b5565b606091505b5080516000036110d75760405162461bcd60e51b81526004016104da90613a8c565b805181602001fd5b6001600160e01b031916630a85bd0160e11b149050610ac3565b506001949350505050565b60608161110f611284565b604051602001611120929190613b79565b6040516020818303038152906040529050919050565b6001600160a01b03821661118c5760405162461bcd60e51b815260206004820181905260248201527f4552433732313a206d696e7420746f20746865207a65726f206164647265737360448201526064016104da565b6000818152600260205260409020546001600160a01b0316156111f15760405162461bcd60e51b815260206004820152601c60248201527f4552433732313a20746f6b656e20616c7265616479206d696e7465640000000060448201526064016104da565b6111fd60008383610fa9565b6001600160a01b0382166000908152600360205260408120805460019290611226908490613a74565b909155505060008181526002602052604080822080546001600160a01b0319166001600160a01b03861690811790915590518392907fddf252ad1be2c89b69c2b068fc378daa952ba7f163c4a11628f55a4df523b3ef908290a45050565b606080606080606080606061129f61129a611611565b6116a5565b6112aa61129a6116ca565b6112b561129a611763565b6112c061129a611810565b6112cb61129a6118c2565b6112d661129a611974565b6112e161129a611a26565b6112ec61129a611abb565b6112f761129a611b4f565b60405160200161130f99989796959493929190613d27565b604051602081830303815290604052955061132b61129a611be2565b61133661129a611c76565b61134161129a611d09565b61134c61129a611da3565b61135761129a611e3d565b61136261129a611ed7565b61136d61129a611f71565b61137861129a612006565b61138361129a612099565b60405160200161139b99989796959493929190613d27565b60405160208183030381529060405294506113b761129a61212d565b6113c261129a6121c0565b6113cd61129a612257565b6113d861129a6122ec565b6113e361129a612382565b6113ee61129a61241b565b6113f961129a6124cb565b61140461129a612560565b61140f61129a6125f8565b60405160200161142799989796959493929190613d27565b604051602081830303815290604052935061144361129a612693565b61144e61129a61272a565b61145961129a6127bf565b61146461129a612857565b61146f61129a6128f4565b61147a61129a61298a565b61148561129a612a1f565b61149061129a612ab4565b61149b61129a612b48565b6040516020016114b399989796959493929190613d27565b60405160208183030381529060405292506114cf61129a612bdf565b6114da61129a612c74565b6114e561129a612d0e565b6114f061129a612da8565b6114fb61129a612e3d565b61150661129a612ecf565b61151161129a612f66565b61151c61129a612ffc565b61152761129a613090565b60405160200161153f99989796959493929190613d27565b604051602081830303815290604052915061155b61129a613124565b61156661129a6131b8565b61157161129a613090565b61157c61129a61324f565b61158761129a6132e8565b61159261129a613380565b61159d61129a613418565b6115a861129a6134ad565b6115b361129a613546565b6040516020016115cb99989796959493929190613d27565b60405160208183030381529060405290508585858585856040516020016115f796959493929190613de8565b604051602081830303815290604052965050505050505090565b61163560405180606001604052806060815260200160608152602001606081525090565b604051806060016040528060405180604001604052806002815260200161333960f11b81525081526020016040518060600160405280602b815260200161476a602b913981526020016040518060400160405280600681526020016508ce4cadcc6d60d31b815250815250905090565b8051602080830151604080850151905160609461112094909384939092849201613e67565b6116ee60405180606001604052806060815260200160608152602001606081525090565b604051806060016040528060405180604001604052806002815260200161333960f11b81525081526020016040518060600160405280602b815260200161476a602b913981526020016040518060400160405280600b81526020016a4672656e6368202846522960a81b815250815250905090565b61178760405180606001604052806060815260200160608152602001606081525090565b6040518060600160405280604051806040016040528060028152602001610f4d60f31b815250815260200160405180604001604052806018815260200177745fccf25c5574c958f2c642f2dbd9745155f3cdcbf1c04160411b8152508152602001604051806040016040528060078152602001664368696e65736560c81b815250815250905090565b61183460405180606001604052806060815260200160608152602001606081525090565b6040518060600160405280604051806040016040528060028152602001610f4d60f31b81525081526020016040518060400160405280601881526020017774c04cf2c045f4c65172c642f2dbd9745155f3cdce71c04160411b81525081526020016040518060400160405280600c81526020016b4368696e6573652028484b2960a01b815250815250905090565b6118e660405180606001604052806060815260200160608152602001606081525090565b6040518060600160405280604051806040016040528060028152602001610f4d60f31b815250815260200160405180604001604052806018815260200177745fccf25c5574c958f2c642f2dbd9745155f3cdcbf1c04160411b81525081526020016040518060400160405280600c81526020016b4368696e6573652028434e2960a01b815250815250905090565b61199860405180606001604052806060815260200160608152602001606081525090565b6040518060600160405280604051806040016040528060028152602001610f4d60f31b81525081526020016040518060400160405280601881526020017774c04cf2c045f4c65172c642f2dbd9745155f3cdce71c04160411b81525081526020016040518060400160405280600c81526020016b4368696e657365202854572960a01b815250815250905090565b611a4a60405180606001604052806060815260200160608152602001606081525090565b604051806060016040528060405180604001604052806002815260200161636160f01b81525081526020016040518060600160405280602e815260200161413d602e913981526020016040518060400160405280600781526020016621b0ba30b630b760c91b815250815250905090565b611adf60405180606001604052806060815260200160608152602001606081525090565b6040518060600160405280604051806040016040528060028152602001616b6f60f01b81525081526020016040518060600160405280603b8152602001614372603b913981526020016040518060400160405280600681526020016525b7b932b0b760d11b815250815250905090565b611b7360405180606001604052806060815260200160608152602001606081525090565b604051806060016040528060405180604001604052806002815260200161637360f01b815250815260200160405180606001604052806030815260200161461460309139815260200160405180604001604052806005815260200164086f4cac6d60db1b815250815250905090565b611c0660405180606001604052806060815260200160608152602001606081525090565b604051806060016040528060405180604001604052806002815260200161646160f01b81525081526020016040518060600160405280603381526020016148a960339139815260200160405180604001604052806006815260200165088c2dcd2e6d60d31b815250815250905090565b611c9a60405180606001604052806060815260200160608152602001606081525090565b6040518060600160405280604051806040016040528060028152602001611b9b60f21b81525081526020016040518060600160405280602d81526020016143ad602d9139815260200160405180604001604052806005815260200164088eae8c6d60db1b815250815250905090565b611d2d60405180606001604052806060815260200160608152602001606081525090565b60405180606001604052806040518060400160405280600281526020016132b760f11b81525081526020016040518060600160405280602181526020016142d56021913981526020016040518060400160405280600c81526020016b456e676c697368202855532960a01b815250815250905090565b611dc760405180606001604052806060815260200160608152602001606081525090565b60405180606001604052806040518060400160405280600281526020016132b760f11b81525081526020016040518060600160405280602681526020016143fd6026913981526020016040518060400160405280600c81526020016b456e676c697368202843412960a01b815250815250905090565b611e6160405180606001604052806060815260200160608152602001606081525090565b60405180606001604052806040518060400160405280600281526020016132b760f11b81525081526020016040518060600160405280602681526020016143fd6026913981526020016040518060400160405280600c81526020016b456e676c697368202847422960a01b815250815250905090565b611efb60405180606001604052806060815260200160608152602001606081525090565b60405180606001604052806040518060400160405280600281526020016132b760f11b81525081526020016040518060600160405280602681526020016143fd6026913981526020016040518060400160405280600c81526020016b456e676c697368202855532960a01b815250815250905090565b611f9560405180606001604052806060815260200160608152602001606081525090565b604051806060016040528060405180604001604052806002815260200161666960f01b81525081526020016040518060600160405280603081526020016142576030913981526020016040518060400160405280600781526020016608cd2dcdcd2e6d60cb1b815250815250905090565b61202a60405180606001604052806060815260200160608152602001606081525090565b604051806060016040528060405180604001604052806002815260200161195b60f21b81525081526020016040518060800160405280605381526020016147ca60539139815260200160405180604001604052806005815260200164477265656b60d81b815250815250905090565b6120bd60405180606001604052806060815260200160608152602001606081525090565b604051806060016040528060405180604001604052806002815260200161686560f01b815250815260200160405180606001604052806026815260200161469b6026913981526020016040518060400160405280600681526020016548656272657760d01b815250815250905090565b61215160405180606001604052806060815260200160608152602001606081525090565b604051806060016040528060405180604001604052806002815260200161686960f01b81525081526020016040518060c00160405280608581526020016144d26085913981526020016040518060400160405280600581526020016448696e646960d81b815250815250905090565b6121e460405180606001604052806060815260200160608152602001606081525090565b604051806060016040528060405180604001604052806002815260200161697360f01b815250815260200160405180606001604052806032815260200161410b603291398152602001604051806040016040528060098152602001684963656c616e64696360b81b815250815250905090565b61227b60405180606001604052806060815260200160608152602001606081525090565b6040518060600160405280604051806040016040528060028152602001611a5d60f21b81525081526020016040518060600160405280603081526020016143426030913981526020016040518060400160405280600781526020016624ba30b634b0b760c91b815250815250905090565b61231060405180606001604052806060815260200160608152602001606081525090565b6040518060600160405280604051806040016040528060028152602001616a6160f01b81525081526020016040518060800160405280604e8152602001614287604e91398152602001604051806040016040528060088152602001674a6170616e65736560c01b815250815250905090565b6123a660405180606001604052806060815260200160608152602001606081525090565b6040518060600160405280604051806040016040528060028152602001616b6f60f01b81525081526020016040518060600160405280603b8152602001614372603b913981526020016040518060400160405280600b81526020016a4b6f7265616e20284b522960a81b815250815250905090565b61243f60405180606001604052806060815260200160608152602001606081525090565b6040518060600160405280604051806040016040528060028152602001616c6160f01b81525081526020016040518060400160405280601f81526020017f486f6320706572616d20657374207369676e61746920757420667572746f2e008152508152602001604051806040016040528060058152602001642630ba34b760d91b815250815250905090565b6124ef60405180606001604052806060815260200160608152602001606081525090565b604051806060016040528060405180604001604052806002815260200161363b60f11b8152508152602001604051806060016040528060298152602001614207602991398152602001604051806040016040528060078152602001662630ba3b34b0b760c91b815250815250905090565b61258460405180606001604052806060815260200160608152602001606081525090565b6040518060600160405280604051806040016040528060028152602001611b1d60f21b81525081526020016040518060600160405280602c815260200161473e602c913981526020016040518060400160405280600a8152602001692634ba343ab0b734b0b760b11b815250815250905090565b61261c60405180606001604052806060815260200160608152602001606081525090565b604051806060016040528060405180604001604052806002815260200161363160f11b81525081526020016040518060600160405280603581526020016148dc6035913981526020016040518060400160405280600d81526020016c098eaf0cadac4deeae4ced2e6d609b1b815250815250905090565b6126b760405180606001604052806060815260200160608152602001606081525090565b6040518060600160405280604051806040016040528060028152602001616e6f60f01b81525081526020016040518060600160405280602981526020016140e2602991398152602001604051806040016040528060098152602001682737b93bb2b3b4b0b760b91b815250815250905090565b61274e60405180606001604052806060815260200160608152602001606081525090565b604051806060016040528060405180604001604052806002815260200161666160f01b8152508152602001604051806080016040528060508152602001614048605091398152602001604051806040016040528060078152602001662832b939b4b0b760c91b815250815250905090565b6127e360405180606001604052806060815260200160608152602001606081525090565b6040518060600160405280604051806040016040528060028152602001611c1d60f21b81525081526020016040518060600160405280602881526020016146446028913981526020016040518060400160405280600a815260200169506f727475677565736560b01b815250815250905090565b61287b60405180606001604052806060815260200160608152602001606081525090565b6040518060600160405280604051806040016040528060028152602001611c1d60f21b81525081526020016040518060600160405280602881526020016146446028913981526020016040518060400160405280600f81526020016e506f7274756775657365202842522960881b815250815250905090565b61291860405180606001604052806060815260200160608152602001606081525090565b604051806060016040528060405180604001604052806002815260200161726f60f01b81525081526020016040518060600160405280602c815260200161484b602c91398152602001604051806040016040528060088152602001672937b6b0b734b0b760c11b815250815250905090565b6129ae60405180606001604052806060815260200160608152602001606081525090565b604051806060016040528060405180604001604052806002815260200161727560f01b81525081526020016040518060800160405280604c81526020016142f6604c9139815260200160405180604001604052806007815260200166293ab9b9b4b0b760c91b815250815250905090565b612a4360405180606001604052806060815260200160608152602001606081525090565b60405180606001604052806040518060400160405280600281526020016139b960f11b8152508152602001604051806080016040528060468152602001613fd76046913981526020016040518060400160405280600781526020016629b2b93134b0b760c91b815250815250905090565b612ad860405180606001604052806060815260200160608152602001606081525090565b604051806060016040528060405180604001604052806002815260200161736b60f01b815250815260200160405180606001604052806032815260200161487760329139815260200160405180604001604052806006815260200165536c6f76616b60d01b815250815250905090565b612b6c60405180606001604052806060815260200160608152602001606081525090565b6040518060600160405280604051806040016040528060028152602001611cdb60f21b81525081526020016040518060600160405280602781526020016142306027913981526020016040518060400160405280600981526020016829b637bb32b734b0b760b91b815250815250905090565b612c0360405180606001604052806060815260200160608152602001606081525090565b604051806060016040528060405180604001604052806002815260200161657360f01b81525081526020016040518060600160405280602b815260200161401d602b91398152602001604051806040016040528060078152602001660a6e0c2dcd2e6d60cb1b815250815250905090565b612c9860405180606001604052806060815260200160608152602001606081525090565b604051806060016040528060405180604001604052806002815260200161657360f01b81525081526020016040518060600160405280602b815260200161401d602b913981526020016040518060400160405280600c81526020016b5370616e69736820284d582960a01b815250815250905090565b612d3260405180606001604052806060815260200160608152602001606081525090565b604051806060016040528060405180604001604052806002815260200161657360f01b81525081526020016040518060600160405280602b815260200161401d602b913981526020016040518060400160405280600c81526020016b5370616e697368202845532960a01b815250815250905090565b612dcc60405180606001604052806060815260200160608152602001606081525090565b60405180606001604052806040518060400160405280600281526020016139bb60f11b81525081526020016040518060600160405280602c8152602001614911602c91398152602001604051806040016040528060078152602001660a6eecac8d2e6d60cb1b815250815250905090565b612e6160405180606001604052806060815260200160608152602001606081525090565b6040518060600160405280604051806040016040528060028152602001610e8d60f31b81525081526020016040518060a0016040528060728152602001614460607291398152602001604051806040016040528060048152602001635468616960e01b815250815250905090565b612ef360405180606001604052806060815260200160608152602001606081525090565b604051806060016040528060405180604001604052806002815260200161756b60f01b81525081526020016040518060800160405280604e8152602001614557604e91398152602001604051806040016040528060098152602001682ab5b930b4b734b0b760b91b815250815250905090565b612f8a60405180606001604052806060815260200160608152602001606081525090565b604051806060016040528060405180604001604052806002815260200161737160f01b81525081526020016040518060600160405280602e815260200161481d602e913981526020016040518060400160405280600881526020016720b63130b734b0b760c11b815250815250905090565b61302060405180606001604052806060815260200160608152602001606081525090565b60405180606001604052806040518060400160405280600281526020016130b960f11b81525081526020016040518060600160405280603d8152602001614423603d913981526020016040518060400160405280600681526020016541726162696360d01b815250815250905090565b6130b460405180606001604052806060815260200160608152602001606081525090565b604051806060016040528060405180604001604052806002815260200161646560f01b81525081526020016040518060600160405280603581526020016147956035913981526020016040518060400160405280600681526020016523b2b936b0b760d11b815250815250905090565b61314860405180606001604052806060815260200160608152602001606081525090565b604051806060016040528060405180604001604052806002815260200161657560f01b81525081526020016040518060600160405280602381526020016143da6023913981526020016040518060400160405280600681526020016542617371756560d01b815250815250905090565b6131dc60405180606001604052806060815260200160608152602001606081525090565b604051806060016040528060405180604001604052806002815260200161626760f01b81525081526020016040518060800160405280604a81526020016141bd604a9139815260200160405180604001604052806009815260200168213ab633b0b934b0b760b91b815250815250905090565b61327360405180606001604052806060815260200160608152602001606081525090565b604051806060016040528060405180604001604052806002815260200161646560f01b81525081526020016040518060600160405280603581526020016147956035913981526020016040518060400160405280600b81526020016a4765726d616e202844452960a81b815250815250905090565b61330c60405180606001604052806060815260200160608152602001606081525090565b6040518060600160405280604051806040016040528060028152602001611a5960f21b81525081526020016040518060600160405280602f815260200161466c602f913981526020016040518060400160405280600a81526020016924b73237b732b9b4b0b760b11b815250815250905090565b6133a460405180606001604052806060815260200160608152602001606081525090565b604051806060016040528060405180604001604052806002815260200161626560f01b81525081526020016040518060800160405280604a8152602001614098604a913981526020016040518060400160405280600a8152602001692132b630b93ab9b4b0b760b11b815250815250905090565b61343c60405180606001604052806060815260200160608152602001606081525090565b604051806060016040528060405180604001604052806002815260200161313760f11b81525081526020016040518060a00160405280607d81526020016146c1607d913981526020016040518060400160405280600781526020016642656e67616c6960c81b815250815250905090565b6134d160405180606001604052806060815260200160608152602001606081525090565b60405180606001604052806040518060400160405280600281526020016130bd60f11b81525081526020016040518060600160405280602f81526020016145e5602f913981526020016040518060400160405280600b81526020016a417a65726261696a616e6960a81b815250815250905090565b61356a60405180606001604052806060815260200160608152602001606081525090565b604051806060016040528060405180604001604052806002815260200161687960f01b815250815260200160405180608001604052806052815260200161416b6052913981526020016040518060400160405280600881526020016720b936b2b734b0b760c11b815250815250905090565b6001600160e01b03198116811461097c57600080fd5b60006020828403121561360457600080fd5b813561360f816135dc565b9392505050565b60005b83811015613631578181015183820152602001613619565b838111156107775750506000910152565b6000815180845261365a816020860160208601613616565b601f01601f19169290920160200192915050565b60208152600061360f6020830184613642565b60006020828403121561369357600080fd5b5035919050565b80356001600160a01b03811681146136b157600080fd5b919050565b600080604083850312156136c957600080fd5b6136d28361369a565b946020939093013593505050565b6000806000606084860312156136f557600080fd5b6136fe8461369a565b925061370c6020850161369a565b9150604084013590509250925092565b60006020828403121561372e57600080fd5b61360f8261369a565b6000806040838503121561374a57600080fd5b6137538361369a565b91506020830135801515811461376857600080fd5b809150509250929050565b634e487b7160e01b600052604160045260246000fd5b6000806000806080858703121561379f57600080fd5b6137a88561369a565b93506137b66020860161369a565b925060408501359150606085013567ffffffffffffffff808211156137da57600080fd5b818701915087601f8301126137ee57600080fd5b81358181111561380057613800613773565b604051601f8201601f19908116603f0116810190838211818310171561382857613828613773565b816040528281528a602084870101111561384157600080fd5b82602086016020830137600060208483010152809550505050505092959194509250565b6000806040838503121561387857600080fd5b6138818361369a565b915061388f6020840161369a565b90509250929050565b600181811c908216806138ac57607f821691505b6020821081036138cc57634e487b7160e01b600052602260045260246000fd5b50919050565b6020808252602d908201527f4552433732313a2063616c6c6572206973206e6f7420746f6b656e206f776e6560408201526c1c881bdc88185c1c1c9bdd9959609a1b606082015260800190565b60008151613931818560208601613616565b9290920192915050565b683d913730b6b2911d1160b91b81528351600090613960816009850160208901613616565b71111610113232b9b1b934b83a34b7b7111d1160711b600991840191820152845161399281601b840160208901613616565b6c1116101134b6b0b3b2911d101160991b601b92909101918201527f646174613a696d6167652f7376672b786d6c3b6261736536342c000000000000602882015283516139e6816042840160208801613616565b61227d60f01b6042929091019182015260440195945050505050565b7f646174613a6170706c69636174696f6e2f6a736f6e3b6261736536342c000000815260008251613a3a81601d850160208701613616565b91909101601d0192915050565b634e487b7160e01b600052601160045260246000fd5b600082821015613a6f57613a6f613a47565b500390565b60008219821115613a8757613a87613a47565b500190565b60208082526032908201527f4552433732313a207472616e7366657220746f206e6f6e20455243373231526560408201527131b2b4bb32b91034b6b83632b6b2b73a32b960711b606082015260800190565b600082613afb57634e487b7160e01b600052601260045260246000fd5b500490565b6000816000190483118215151615613b1a57613b1a613a47565b500290565b6001600160a01b0385811682528416602082015260408101839052608060608201819052600090613b5290830184613642565b9695505050505050565b600060208284031215613b6e57600080fd5b815161360f816135dc565b7f3c73766720786d6c6e733d22687474703a2f2f7777772e77332e6f72672f323081527f30302f737667222076696577426f783d223020302035313220353132223e00006020820152651e3232b3399f60d11b603e8201527f3c7465787420786d6c3a6c616e673d22656e2d5553222069643d2261223e546860448201527f69732077616c6c657420686173206265656e207369676e65642061732073746f60648201526a3632b7171e17ba32bc3a1f60a91b6084820152661e17b232b3399f60c91b608f8201527f3c726563742077696474683d223130302522206865696768743d22313030252260968201526210179f60e91b60b68201526802a37b5b2b724b21d160bd1b60b98201528260c28201526000610ac3613d15613d0f60e285017f3c7377697463682066696c6c3d222366666622207374726f6b653d222330303081527f2220666f6e742d66616d696c793d2248656c7665746963612220666f6e742d7360208201527f697a653d2231382220666f6e742d7765696768743d22626f6c64223e000000006040820152605c0190565b8561391f565b651e17b9bb339f60d11b815260060190565b60008a51613d39818460208f01613616565b8a51613d4b8183860160208f01613616565b8a519184010190613d60818360208e01613616565b8951613d728183850160208e01613616565b8951929091010190613d88818360208c01613616565b8751613d9a8183850160208c01613616565b8751929091010190613db0818360208a01613616565b8551613dc28183850160208a01613616565b8551929091010190613dd8818360208801613616565b019b9a5050505050505050505050565b600087516020613dfb8285838d01613616565b885191840191613e0e8184848d01613616565b8851920191613e208184848c01613616565b8751920191613e328184848b01613616565b8651920191613e448184848a01613616565b8551920191613e568184848901613616565b919091019998505050505050505050565b721e339039bcb9ba32b6a630b733bab0b3b29e9160691b81528551600090613e96816013850160208b01613616565b601f60f91b6013918401918201526f1e3a32bc3a103c36b61d3630b7339e9160811b60148201528651613ed0816024840160208b01613616565b7011103c1e91191811103c9e91191a9a911f60791b602492909101918201528551613f02816035840160208a01613616565b661e17ba32bc3a1f60c91b910160358101919091527f3c75736520783d2232302220793d223237352220687265663d22236122202f3e603c8201526f1e3a32bc3a103c36b61d3630b7339e9160811b605c820152613fca613fba613fa8613f95613f8f613f72606c87018b61391f565b7011103c1e91191811103c9e91191a9a911f60791b815260110190565b8861391f565b661e17ba32bc3a1f60c91b815260070190565b652d2d2667743b60d01b815260060190565b631e17b39f60e11b815260040190565b9897505050505050505056fed09ed0b2d0b0d19820d0bdd0bed0b2d187d0b0d0bdd0b8d0ba20d198d0b520d0bfd0bed182d0bfd0b8d181d0b0d0bd20d0bad0b0d0be20d183d0bad180d0b0d0b4d0b5d0bd2e457374612062696c6c6574657261206861207369646f206669726d61646120636f6d6f20726f626164612ed8a7db8cd98620daa9db8cd98120d9bed988d98420d8a8d98720d8b9d986d988d8a7d98620d8afd8b2d8afdb8cd8afd98720d8b4d8afd98720d8a7d985d8b6d8a720d8b4d8afd98720d8a7d8b3d8aa2ed093d18dd182d18b20d0bad0b0d188d0b0d0bbd191d0ba20d0b1d18bd19e20d0bfd0b0d0b4d0bfd196d181d0b0d0bdd18b20d18fd0ba20d181d0bad180d0b0d0b4d0b7d0b5d0bdd18b2e44656e6e65206c6f6d6d65626f6b656e206572207369676e65727420736f6d2073746ac3a56c65742ec39e65747461207665736b692068656675722076657269c3b020756e64697272697461c3b02073656d2073746f6c69c3b02e417175657374612063617274657261206861206573746174207369676e61646120636f6d206120726f626164612ed4b1d5b5d5bd20d5a4d680d5a1d5b4d5a1d5bad5a1d5b6d5a1d5afd5a820d5bdd5bfd5b8d680d5a1d5a3d680d5bed5a5d5ac20d5a720d5b8d680d5bad5a5d5bd20d5a3d5b8d5b2d5a1d681d5bed5a1d5ae3ad0a2d0bed0b7d0b820d0bfd0bed180d182d184d0b5d0b9d0bb20d0b520d0bfd0bed0b4d0bfd0b8d181d0b0d0bd20d0bad0b0d182d0be20d0bed182d0bad180d0b0d0b4d0bdd0b0d1822ec5a06973206d616369c586c5a120697220706172616b7374c4ab7473206bc481206e6f7a616774732e54612064656e61726e696361206a6520706f64706973616e61206b6f7420756b726164656e612e54c3a46dc3a4206c6f6d70616b6b6f206f6e20616c6c656b69726a6f69746574747520766172617374657474756e612ee38193e381aee382a6e382a9e383ace38383e38388e381afe79b97e381bee3828ce3819fe38282e381aee381a8e38197e381a6e7bdb2e5908de38195e3828ce381a6e38184e381bee38199e38082546869732077616c6c65742069732061207369676e656420636f6e74726163742ed0add182d0bed18220d0bad0bed188d0b5d0bbd0b5d0ba20d0b1d18bd0bb20d0bfd0bed0b4d0bfd0b8d181d0b0d0bd20d0bad0b0d0ba20d183d0bad180d0b0d0b4d0b5d0bdd0bdd18bd0b92e51756573746f20706f727461666f676c696f20c3a820737461746f206669726d61746f20636f6d652072756261746f2eec9db420eca780eab091ec9d8020eb8f84eb829ceb8bb9ed959c20eab283ec9cbceba19c20ec849cebaa85eb9098ec9788ec8ab5eb8b88eb8ba42e44657a6520706f7274656d6f6e6e6565206973206f6e64657274656b656e6420616c7320676573746f6c656e2e5a6f72726f20686175206c6170757274752062657a616c612073696e6174752064612e546869732077616c6c657420686173206265656e207369676e65642061732073746f6c656e2ed988d982d8af20d8aad98520d8aad988d982d98ad8b920d987d8b0d98720d8a7d984d985d8add981d8b8d8a920d983d985d8a720d8b3d8b1d982d8aa2ee0b881e0b8a3e0b8b0e0b980e0b89be0b98be0b8b2e0b980e0b887e0b8b4e0b899e0b899e0b8b5e0b989e0b984e0b894e0b989e0b8a3e0b8b1e0b89ae0b881e0b8b2e0b8a3e0b8a5e0b887e0b899e0b8b2e0b8a1e0b8a7e0b988e0b8b2e0b896e0b8b9e0b881e0b882e0b982e0b8a1e0b8a2e0a487e0a4b820e0a4ace0a49fe0a581e0a48f20e0a495e0a58b20e0a49ae0a58be0a4b0e0a58020e0a495e0a58720e0a4b0e0a582e0a4aa20e0a4aee0a587e0a48220e0a4b9e0a4b8e0a58de0a4a4e0a4bee0a495e0a58de0a4b7e0a4b0e0a4bfe0a4a420e0a495e0a4bfe0a4afe0a4be20e0a497e0a4afe0a4be20e0a4b9e0a588e0a5a4d0a6d0b5d0b920d0b3d0b0d0bcd0b0d0bdd0b5d186d18c20d0b1d183d0b220d0bfd196d0b4d0bfd0b8d181d0b0d0bdd0b8d0b920d18fd0ba20d0b2d0b8d0bad180d0b0d0b4d0b5d0bdd0b8d0b92e4142434445464748494a4b4c4d4e4f505152535455565758595a6162636465666768696a6b6c6d6e6f707172737475767778797a303132333435363738392b2f42752063c3bc7a64616e206fc49f75726c616e6dc4b1c59f206b696d6920696d7a616c616e6dc4b1c59f64c4b1722e5461746f2070656ec49bc5be656e6b612062796c6120706f64657073c3a16e61206a616b6f20756b726164656ec3a12e4573746120636172746569726120666f6920617373696e61646120636f6d6f20726f75626164612e446f6d70657420696e692074656c616820646974616e646174616e67616e692073656261676169206469637572692ed794d790d7a8d7a0d7a720d794d796d79420d7a0d797d7aad79d20d79bd792d7a0d795d7912ee0a68fe0a68720e0a6aee0a6bee0a6a8e0a6bfe0a6ace0a78de0a6afe0a6bee0a697e0a69fe0a6bf20e0a69ae0a781e0a6b0e0a6bf20e0a6b9e0a6bfe0a6b8e0a6bee0a6ace0a78720e0a6b8e0a78de0a6ace0a6bee0a695e0a78de0a6b7e0a6b0e0a6bfe0a6a420e0a6b9e0a6afe0a6bce0a787e0a69be0a787e0a5a4c5a0692070696e6967696ec497206275766f20706173697261c5a1797461206b616970207061766f6774612e436520706f727465666575696c6c65206120c3a974c3a9207369676ec3a920636f6d6d6520766f6cc3a92e446965736520427269656674617363686520777572646520616c7320676573746f686c656e20756e74657273636872696562656e2ece91cf85cf84cf8c20cf84cebf20cf80cebfcf81cf84cebfcf86cf8ccebbceb920ceadcf87ceb5ceb920cf85cf80cebfceb3cf81ceb1cf86ceb5ceaf20cf89cf8220cebacebbceb5cebccebcceadcebdcebf2e4b6a6f20706f72746f666f6c20c3ab736874c3ab206ec3ab6e73686b72756172207369206520766a65646875722e416365737420706f72746f66656c206120666f73742073656d6e6174206361206669696e642066757261742e54c3a1746f207065c58861c5be656e6b6120626f6c6120706f6470c3ad73616ec3a120616b6f20756b7261646e7574c3a12e44656e6e65207465676e65626f6720657220626c6576657420756e646572736b726576657420736f6d2073746ac3a56c65742e44c3ab736520506f7274656d6f6e6e61696520676f756620c3ab6e6e657273636872697777656e2077c3a9692067656b6c6175742e44656e6e6120706cc3a56e626f6b2068617220756e6465727465636b6e61747320736f6d207374756c656e2ea2646970667358221220e06faf2339897c390c0477432307fb7158fe27a53648a565bf9e55bc3b050b1764736f6c634300080f0033",
    "linkReferences": {}
  },
  "methodIdentifiers": {
    "approve(address,uint256)": "095ea7b3",
    "balanceOf(address)": "70a08231",
    "getApproved(uint256)": "081812fc",
    "isApprovedForAll(address,address)": "e985e9c5",
    "name()": "06fdde03",
    "owner()": "8da5cb5b",
    "ownerOf(uint256)": "6352211e",
    "renounceOwnership()": "715018a6",
    "safeMint()": "6871ee40",
    "safeTransferFrom(address,address,uint256)": "42842e0e",
    "safeTransferFrom(address,address,uint256,bytes)": "b88d4fde",
    "setApprovalForAll(address,bool)": "a22cb465",
    "supportsInterface(bytes4)": "01ffc9a7",
    "symbol()": "95d89b41",
    "tokenURI(uint256)": "c87b56dd",
    "transferFrom(address,address,uint256)": "23b872dd",
    "transferOwnership(address)": "f2fde38b"
  },
  "id": 22
}